:020000040000FA
:100000000C9463000C948B000C948B000C94370BB5
:100010000C94370B0C94370B0C948B000C948B00C6
:100020000C948B000C948B000C948B000C948B0024
:100030000C948B000C948B000C948B000C948B0014
:100040000C94D2090C948B000C94A0090C947A099E
:100050000C948B000C948B000C948B000C948B00F4
:100060000C941C0A0C948B00000000002400270054
:100070002A0000000008000201000003040700003D
:1000800000000000000000000000230026002900FE
:1000900000000000250028002B00040404040404D0
:1000A0000404020202020202030303030303010227
:1000B00004081020408001020408102001020408F6
:1000C0001020AF0B721411241FBECFEFD8E0DEBF9B
:1000D000CDBF25E0ACE6B1E001C01D92AC3CB2075B
:1000E000E1F711E0A0E0B1E0E8E2FEE202C0059035
:1000F0000D92AC36B107D9F710E0C2E6D0E004C0EB
:100100002197FE010E94FB14C136D107C9F70E9456
:10011000BC0C0C9407170C9400000F931F93CF9303
:100120008C01C62F80913B0490913C04DC01ED9141
:10013000FC910480F581E02D09954C2F50E0841747
:1001400095078CF080913B0490913C04DC01ED918B
:10015000FC910280F381E02DB801099581E0CF91F7
:100160001F910F91089580E0FACFCF92DF92EF9226
:10017000FF92CF93DF93EC016A017B0160E874E8A2
:100180008EE190E0A70196010E94D9142150310917
:10019000410951095695479537952795E889F98979
:1001A00082E08083211580E1380798F0E889F98999
:1001B000108260E472E48FE090E0A70196010E9453
:1001C000D914215031094109510956954795379560
:1001D0002795EC85FD853083EE85FF852083188E7D
:1001E000EC89FD8986E08083EA89FB8980818061D2
:1001F0008083EA89FB89808188608083EA89FB8922
:10020000808180688083EA89FB8980818F7D8083FB
:10021000DF91CF91FF90EF90DF90CF900895AF9254
:10022000BF92CF92DF92EF92FF920F931F93CF93E3
:10023000DF936C017B018B01040F151FEB015E0145
:10024000AE18BF08C017D10759F06991D601ED91DA
:10025000FC910190F081E02DC6010995892B79F779
:10026000C501DF91CF911F910F91FF90EF90DF902B
:10027000CF90BF90AF900895FC01538D448D252FF2
:1002800030E0842F90E0821B930B541710F0CF9630
:10029000089501970895FC01918D828D981761F062
:1002A000A28DAE0FBF2FB11D5D968C91928D9F5F79
:1002B0009F73928F90E008958FEF9FEF0895FC0158
:1002C000918D828D981731F0828DE80FF11D858D0B
:1002D00090E008958FEF9FEF0895FC01918D228D9E
:1002E000892F90E0805C9F4F821B91098F73992723
:1002F00008958EE993E00E946D0121E0892B09F4B5
:1003000020E0822F089580E090E0892B29F00E9460
:10031000790181110C9400000895CF93DF93EC01D3
:10032000E881F9810680F781E02D0995EA89FB894A
:1003300080818F7E8083EA89FB898081877F8083AB
:10034000EA89FB8980818F778083EA89FB898081B4
:100350008F7D80838A8D898FDF91CF910895FC01F5
:10036000A48DA80FB92FB11DA35ABF4F2C91848D16
:1003700090E001968F739927848FA689B7892C9373
:10038000A089B1898C91837080648C93938D848DC6
:10039000981306C00288F389E02D80818F7D8083C9
:1003A0000895EF92FF920F931F93CF93DF93EC0189
:1003B00081E0888F9B8D8C8D98131AC0E889F9890C
:1003C000808185FF15C09FB7F894EE89FF8960830F
:1003D000E889F98980818370806480839FBF81E090
:1003E00090E0DF91CF911F910F91FF90EF900895D2
:1003F000F62E0B8D10E00F5F1F4F0F731127E02EAD
:100400008C8D8E110CC00FB607FCFACFE889F989E4
:10041000808185FFF5CFCE010E94AF01F1CFEB8D3A
:10042000EC0FFD2FF11DE35AFF4FF0829FB7F894B8
:100430000B8FEA89FB8980818062CFCFCF93DF93D6
:10044000EC01888D8823B9F0AA89BB89E889F989EC
:100450008C9185FD03C0808186FD0DC00FB607FC21
:10046000F7CF8C9185FFF2CF808185FFEDCFCE0154
:100470000E94AF01E9CFDF91CF91089590E0FC0198
:10048000EE58FF4F2491FC01E255FF4F3491FC01DF
:10049000E656FF4FE491EE23C9F0222339F02330D2
:1004A00001F1A8F4213019F1223029F1F0E0EE0F2A
:1004B000FF1FE057FF4FA591B4918FB7F894EC91CF
:1004C000611126C030953E233C938FBF089527309D
:1004D000A9F02830C9F0243049F7809180008F7D41
:1004E00003C0809180008F7780938000DFCF84B538
:1004F0008F7784BDDBCF84B58F7DFBCF8091B0003B
:100500008F778093B000D2CF8091B0008F7DF9CFEC
:100510003E2BDACFCF93DF9390E0FC01E255FF4F03
:10052000249186569F4FFC0184918823D1F090E05E
:10053000880F991FFC01E859FF4FA591B491FC0168
:10054000E057FF4FC591D49161110EC09FB7F89449
:100550008C91E22FE0958E238C932881E223E8830F
:100560009FBFDF91CF9108958FB7F894EC91E22B64
:10057000EC938FBFF6CF3FB7F8948091F90190913B
:10058000FA01A091FB01B091FC0126B5A89B05C022
:100590002F3F19F00196A11DB11D3FBFBA2FA92F02
:1005A000982F8827BC01CD01620F711D811D911DFF
:1005B00043E0660F771F881F991F4A95D1F708956A
:1005C0002FB7F8946091F5017091F6018091F701D1
:1005D0009091F8012FBF08951F93CF93DF93C1E04F
:1005E000C093B001882399F1D091B8001091BA005E
:1005F0008091BC008A7B8093BC0060E082E10E9415
:100600003E0260E083E10E943E0210927403C093B8
:10061000730310924E0361E082E10E943E0261E0AA
:1006200083E10E943E028091B9008E7F8093B900E1
:100630008091B9008D7F8093B90080E28093B800EB
:1006400085E48093BC001093BA00D093B800DF918A
:10065000CF911F910895CF92DF92EF92FF920F9367
:100660001F93CF93DF939C01AB018091F80490918D
:10067000F904009709F4E2C0B90121E020939D0339
:1006800022E320939C0310929B0310929A03DC01B7
:10069000ED91FC910280F381E02D0995D0919A03B0
:1006A000D13208F094C0C0919C030E94BB026B0140
:1006B0007C0180917403811165C082E08093740392
:1006C00081E0809373038FEF809372031092710324
:1006D000D0937003AAE7B3E0E0E5F3E080E0D8133D
:1006E00085C010924F0380914F03CC0FC82BC0934D
:1006F0004F0380914E03813009F07CC010924E036D
:100700000E94BB026B017C0180914F038093BB0070
:100710008091760390917703A0917803B09179034B
:10072000892B8A2B8B2B99F00E94BB0200917603B8
:100730001091770320917803309179036C197D092A
:100740008E099F090617170728073907E0F18091DE
:10075000BC0083FDD9CF85EC8093BC000E94BB0216
:100760006B017C0180917403823009F445C0809153
:1007700072038F3F61F180917203803241F1809169
:10078000720325C08091760390917703A09178033E
:10079000B0917903892B8A2B8B2B09F48ACF0E9485
:1007A000BB0200917603109177032091780330917A
:1007B00079036C197D098E099F0906171707280709
:1007C000390708F076CF809175030E94EC021092F1
:1007D0009B0310929A0310929D03DF91CF911F917A
:1007E0000F91FF90EF90DF90CF9008959D9191939E
:1007F0008F5F75CF85EEB0CF8091760390917703B0
:10080000A0917803B0917903892B8A2B8B2B09F463
:10081000A9CF0E94BB02009176031091770320912B
:100820007803309179036C197D098E099F090617A9
:1008300017072807390708F095CFC5CF8091FA042C
:100840009091FB04009749F2DC01ED91FC9102804C
:10085000F381E02DB901DF91CF911F910F91FF90AE
:10086000EF90DF90CF9009942091D101260F33278C
:10087000331F21323105ECF420917403FC0190E028
:1008800080E0243069F082E00895A091D1012191A7
:10089000AC014F545E4FA40FB52FB11D2C930196A0
:1008A000861798F38091D101680F6093D10180E0A1
:1008B000089581E008950895E0912D0380912C031F
:1008C000E81730F4F0E0E25DFC4F808190E008959D
:1008D0008FEF9FEF089590912D0380912C032FEFC0
:1008E0003FEF981748F4E92FF0E0E25DFC4F2081DC
:1008F00030E09F5F90932D03C901089580912C03F0
:1009000090912D03891B990B0895CF92DF92EF925E
:10091000FF920F931F93CF93DF937C01CB018A014A
:1009200020919D03222389F0EB016B01C40ED51E9B
:10093000CC15DD0569F06991D701ED91FC9101902D
:10094000F081E02DC7010995F3CF642F0E94340494
:10095000C801DF91CF911F910F91FF90EF90DF9031
:10096000CF900895CF93DF931F92CDB7DEB7698301
:1009700020919D032223F9F020919A03203258F010
:1009800021E030E0FC013383228390E080E00F908F
:10099000DF91CF91089580919B03E82FF0E0E65816
:1009A000FC4F998190838F5F80939B0380939A0380
:1009B00081E090E0ECCF61E0CE0101960E9434042A
:1009C000F7CF80910102909102028F379105D4F404
:1009D0002BEF280F20930602E3E0F2E020E0AF01C6
:1009E000435052404817590754F0FC01ED5FFD4F4A
:1009F0002083019690930202809301020895319121
:100A0000230FEDCF90E080E008952091AA0230916D
:100A1000AB028091AE019091AF012817390724F401
:100A20008091A902882331F081E08093A80290E0B0
:100A300080E00895F901E455FD4F808191812E5F9A
:100A40003F4F3093AB022093AA0208952091AC014E
:100A50003091AD0121303105F1F13CF52115310521
:100A600079F1F901E455FD4F80834091AF02842F65
:100A700090E005962817390739F59093AF018093D8
:100A8000AE011092AD011092AC014B5FECEAF2E0C6
:100A900030E020E0341768F19927FC01E455FD4F60
:100AA00081E0908192131DC0089522303105F1F04C
:100AB00023303105B1F68A3780F48093AF0204C049
:100AC000853579F48093AC022F5F3F4F3093AD01B1
:100AD0002093AC0106C08A3A31F01092AD01109219
:100AE000AC0180E0E1CF8093AD02EECF8093AE0207
:100AF000EBCF5191250F3F5FCDCF2091FF0130917A
:100B000000022817390771F49091FD018091FE01D0
:100B1000981741F0E091FD01F0E0E459FE4F80812B
:100B200090E008958FEF9FEF0895EF92FF920F935B
:100B30001F93CF93DF93DC015C96ED90FC905D9763
:100B4000E114F10479F481E090E013969C938E9384
:100B5000129790E080E0DF91CF911F910F91FF906D
:100B6000EF9008955196ED91FC91529750968C918B
:100B70005097982F90950FB75E962C915E97122FF5
:100B8000127021FD6095F8942081112319F1282B12
:100B90002083E7012197F1F728E0462F50E03081CC
:100BA00060FF1AC0382B3083E7012197F1F7BA01B3
:100BB00075956795215089F7112381F080818923EC
:100BC00080830FBF5C968D919C910197F1F781E036
:100BD00090E0C1CF2923DCCF3923E5CF9081892B49
:100BE000EFCF2091FF01309100022817390771F4EF
:100BF0008091FE012091FD0190E0805C9F4F821B5F
:100C0000910960E470E00E94C514089590E080E0CE
:100C100008952091FF013091000228173907B9F497
:100C20009091FD018091FE01981789F0E091FD01FE
:100C3000F0E0E459FE4F80812091FD0130E02F5F0C
:100C40003F4F2F7333272093FD0190E008958FEFDE
:100C50009FEF089590E080E00895CF93DF93209177
:100C6000B002621327C0EC0185E090E09093AB02E4
:100C70008093AA021092A9021092A80268830E948F
:100C800005059A8389830E9405059C838B830E94B6
:100C900005059E838D830E94050598878F830E949A
:100CA00005059A8789878091A80281111092A80270
:100CB00081E001C080E0DF91CF9108954F925F9273
:100CC0006F927F928F929F92AF92BF92EF92FF921C
:100CD0000F931F93CF93DF93D82F0E94E00260936E
:100CE000000570930105809302059093030515EEAE
:100CF00005ECC1E0FF24FA948FE0E82E0E94E002A8
:100D00008090000590900105A0900205B090030529
:100D1000681979098A099B098090FC049090FD0468
:100D2000A090FE04B090FF0486169706A806B906A8
:100D300008F41FC18091F8049091F904009709F418
:100D4000F3C0DC01ED91FC910084F185E02D099563
:100D5000892B09F093C00E94BB024B015C0180917A
:100D60007403811161C0C0937403C0937303F09244
:100D7000720310927103E0927003C0934F0380914D
:100D80004F03846680934F0380914E03813009F0B6
:100D9000A4C010924E030E94BB024B015C018091E3
:100DA0004F038093BB008091760390917703A091CD
:100DB0007803B0917903892B8A2B8B2BA1F00E94A9
:100DC000BB02409076035090770360907803709058
:100DD0007903681979098A099B0946165706680636
:100DE000790608F442C08091BC0083FDD8CF0093FF
:100DF000BC000E94BB024B015C01809174038130F6
:100E000009F46EC080917103803108F08BC080912D
:100E10007103E0E5F3E0AEE2B3E090E0981751F142
:100E200021912D939F5FFACF809176039091770364
:100E3000A0917803B0917903892B8A2B8B2B09F42D
:100E40008ECF0E94BB024090760350907703609053
:100E5000780370907903681979098A099B09461605
:100E600057066806790608F07ACF809175030E94CC
:100E7000EC0280E010922D0380932C038091F80403
:100E80009091F904DC01ED91FC910084F185E02D55
:100E90000995892B09F432CF8091F8049091F904D7
:100EA000DC01ED91FC910284F385E02D09950E940F
:100EB0002605882319F3DD2371F08091B002D81341
:100EC0001DCF85E090E09093AB028093AA02109230
:100ED000A9021092A80281E04DC01093BC0089CFF6
:100EE0008091760390917703A0917803B091790374
:100EF000892B8A2B8B2B09F480CF0E94BB02409058
:100F000076035090770360907803709079036819A6
:100F100079098A099B09461657066806790608F07A
:100F20006CCFA3CF80E175CF8091FA049091FB0440
:100F3000892B09F4E3CE8091FA049091FB04DC0143
:100F4000ED91FC910084F185E02D0995892B09F440
:100F5000D5CE8091FA049091FB04DC01ED91FC91D7
:100F60000284F385E02D09950E942605882319F354
:100F7000A2CF80E0DF91CF911F910F91FF90EF9072
:100F8000BF90AF909F908F907F906F905F904F90A9
:100F90000895EF920F931F93CF93DF93EC0142508C
:100FA0004F3108F5E42FF0E0E45FFE4F408188E028
:100FB000489FA0011124262B242BFE012193CF0151
:100FC0004E2D50E0B8010E94F716FE012FEF81E090
:100FD0008E0D90E0AF014C1B5D0B481759072CF4A8
:100FE00031912327F7CF40E0E2CFC80FD91F2883E4
:100FF00082E08E0DDF91CF911F910F91EF900895B8
:10100000EF920F931F93CF93DF9300D000D0CDB713
:10101000DEB769837A838B839C8384E0E82E8E011C
:101020000F5F1F4F20915B0444E060EC89E694E081
:101030000E94C9078093AF046091AF0489E694E0F1
:101040000E948D008823C1F30F900F900F900F9096
:10105000DF91CF911F910F91EF900895FC01808156
:101060009181009711F00C94B1150895EF92FF92C1
:101070000F931F93CF93DF93EC017B018A0188814B
:101080009981009729F02A813B812417350788F43C
:10109000B8016F5F7F4F0E943A16009791F09983D5
:1010A00088831B830A832C813D81232B11F4FC014F
:1010B00010821D830C83B701888199810E940017DB
:1010C0000CC088819981009711F00E94B115198296
:1010D00018821D821C821B821A82CE01DF91CF9161
:1010E0001F910F91FF90EF900895CF93DF93EC0144
:1010F000FB018617970749F06081718161157105C1
:1011000041F0448155810E943608CE01DF91CF9194
:10111000089588819981009711F00E94B115198274
:1011200018821D821C821B821A82EFCFFC01118261
:1011300010821382128215821482FB01019000201A
:10114000E9F73197AF01461B570B0C943608DF9235
:10115000EF92FF920F931F93CF93DF93CDB7DEB73C
:101160002C970FB6F894DEBF0FBECDBF8B01D42EE7
:101170001A8219821C821B821E821D82BC01CE0132
:1011800001960E94750818861F821A8619861C8689
:101190001B86B801CE0107960E94750889E290E08F
:1011A0000E9415158C016AE571E00E94960878018D
:1011B0008EE1E80EF11C6AE571E0C7010E94960815
:1011C000BE016F5F7F4FC8010E947508BE01695F55
:1011D0007F4FC7010E947508F801D4A282E085A361
:1011E00085E086A317A281E080A716821782108669
:1011F000118680E090ECAFE7B4E482879387A48700
:10120000B58716861786108A118A828B938BA48BDA
:10121000B58B168A178A108E118E80E090E0A8ECAC
:10122000B2E4828F938FA48FB58FCE0107960E9470
:101230002E08CE0101960E942E08ABE3B4E013966F
:101240008C911397E82FF0E0EE0FFF1FEB5BFB4F45
:10125000118300838F5F13968C93139714968C9150
:1012600014978F5F14968C932C960FB6F894DEBF6C
:101270000FBECDBFDF91CF911F910F91FF90EF90E7
:10128000DF90089585ED8093BC0080917603909166
:101290007703A0917803B09179030796A11DB11D42
:1012A00023E0B695A795979587952A95D1F7209134
:1012B000BC0024FD03C0109274030895409176038E
:1012C000509177036091780370917903452B462BF9
:1012D000472B69F30097A105B10541F02AE12A9552
:1012E000F1F700C00197A109B109E1CF8091750321
:1012F0000C94EC021F920F920FB60F9211242F93B1
:101300003F934F935F936F937F938F939F93AF938D
:10131000BF93EF93FF938EE993E00E94AF01FF919B
:10132000EF91BF91AF919F918F917F916F915F915D
:101330004F913F912F910F900FBE0F901F901895D6
:101340001F920F920FB60F9211242F938F939F939A
:10135000EF93FF93E091AE03F091AF038081E091B2
:10136000B403F091B50382FD1BC090818091B70357
:101370008F5F8F732091B803821741F0E091B7031C
:10138000F0E0E256FC4F958F8093B703FF91EF9109
:101390009F918F912F910F900FBE0F901F901895D6
:1013A0008081F4CF1F920F920FB60F9211242F93CA
:1013B0003F938F939F93AF93BF938091F50190914B
:1013C000F601A091F701B091F8013091F40126E007
:1013D000230F2D3758F50296A11DB11D2093F4015E
:1013E0008093F5019093F601A093F701B093F80173
:1013F0008091F9019091FA01A091FB01B091FC015B
:101400000196A11DB11D8093F9019093FA01A0935B
:10141000FB01B093FC01BF91AF919F918F913F91E0
:101420002F910F900FBE0F901F90189529E8230F52
:101430000396A11DB11DD2CF1F920F920FB60F922E
:1014400011242F933F934F935F936F937F938F93C9
:101450009F93AF93BF93EF93FF938091B900887FE1
:10146000803609F44AC0F0F5883209F4A5C018F5B1
:10147000803109F499C0B8F4882309F4F5C08830A4
:1014800009F492C0FF91EF91BF91AF919F918F911D
:101490007F916F915F914F913F912F910F900FBE70
:1014A0000F901F901895883109F486C0803251F74B
:1014B0008093720314C0803409F49BC040F48033DD
:1014C000B9F38833F9F68093720385ECAEC08035AA
:1014D00009F483C0883509F494C0883499F60E94D1
:1014E0004209D0CF883909F48AC038F5883729F005
:1014F00050F4883611F0803729F683E08093740326
:101500001092F30155C0883809F479C0803919F078
:10151000803809F0B7CF8091F301803208F06FC0B6
:10152000E091F30181E08E0F8093F3018091BB0085
:10153000F0E0ED52FE4F80833BC0803B39F0D0F4A9
:10154000803A09F477C0883A09F09CCF84E0809310
:1015500074031092D2011092D101F0E0E0E00995FD
:101560008091D10181110FC081E08093D10110924F
:10157000B10109C0803C09F4A8CF883C09F4A5CF8B
:10158000883B09F07FCFE091D20181E08E0F8093FC
:10159000D201F0E0EF54FE4F80818093BB00909128
:1015A000D2018091D10129C080914F038093BB006B
:1015B00085EC8093BC0066CF90917103809170039D
:1015C000981758F5E091710381E08E0F80937103B5
:1015D000F0E0E05BFC4F8081E9CFE091710381E0B6
:1015E0008E0F809371038091BB00F0E0E05BFC4FB5
:1015F000808390917103809170039817C8F285E8F9
:10160000D8CFE091710381E08E0F809371038091B8
:10161000BB00F0E0E05BFC4F80838091730381119D
:101620005ECF81E080934E0384EA8093BC001092E9
:10163000740328CF85EC8093BC00109274038091D2
:10164000F301803230F4E091F301F0E0ED52FE4F0F
:1016500010826091F30170E083ED91E0F0E0E0E052
:1016600009951092F3010ECF1092720338CF1F929A
:101670000F920FB60F9211242F933F934F935F93C6
:101680006F937F938F939F93AF93BF93EF93FF934A
:10169000E091FF01F0910002309749F0A685B785EF
:1016A0008585968D91FF14C09C918923A1F4FF91AB
:1016B000EF91BF91AF919F918F917F916F915F91CA
:1016C0004F913F912F910F900FBE0F901F90189543
:1016D0009C91892361F7A389B4899C918589809520
:1016E00089238C93868997890197F1F7608D718D95
:1016F000A685B785558538E020E0CB010197F1F745
:10170000822F90E095958795282F4C91452309F0DD
:101710002068315091F7868D81FD20958091FE01E2
:1017200090E001968F7399273091FD01381799F059
:10173000A091FE01B0E0A459BE4F2C938093FE010E
:10174000828D938D0197F1F7A389B4898C91958946
:10175000892B8C93ACCF868D8160868FF1CF1092D0
:10176000A1031092A00348EE53E060E070E04093C4
:10177000A2035093A3036093A4037093A5038FE285
:1017800091E090939F0380939E0385EC90E090936B
:10179000AB038093AA0384EC90E09093AD03809315
:1017A000AC0380EC90E09093AF038093AE0381ECA8
:1017B00090E09093B1038093B00382EC90E090931B
:1017C000B3038093B20386EC90E09093B5038093CB
:1017D000B4031092B7031092B8031092B903109299
:1017E000BA0384E690E0A0E0B0E08093FC0490931C
:1017F000FD04A093FE04B093FF041092050510921F
:10180000040510928705109286051092F904109233
:10181000F8041092FB041092FA048FEF809388056D
:101820008FEF9FEF90938A058093890590938C05A5
:1018300080938B0590938E0580938D0590939005F2
:1018400080938F0590939205809391051092DC040C
:101850001092DB044093DD045093DE046093DF04B8
:101860007093E00481E491E09093DA048093D904CA
:101870001092F0041092EF041092F2041092F1040E
:101880001092F4041092F3041092F6041092F504EE
:101890006091F7046E7F6D7F6093F70466956170C9
:1018A00081E0682783E00E943E0261E083E00E94BD
:1018B0008A02E1EBF0E0E491E093E904EDE9F0E085
:1018C000E491F0E0EE0FFF1FE057FF4F85919491F8
:1018D0009093EB048093EA0460E082E00E948A0225
:1018E0008091F70481FD04C061E082E00E943E0225
:1018F00082E08093E504E0EBF0E0E491E093E6041D
:10190000ECE9F0E0E491F0E0EE0FFF1FEA57FF4F43
:10191000859194919093E8048093E7041092D30406
:101920001092D4048FEF8093D5048EE993E09093C6
:101930003C0480933B0484E580933D0480E096E979
:10194000A0E0B0E08093400490934104A09342044F
:10195000B093430481E08093440410923E041092BB
:101960003F0410925B04109256041092550410929A
:101970005804109257040895CF93DF93CDB7DEB784
:101980002C970FB6F894DEBF0FBECDBF789484B508
:10199000826084BD84B5816084BD85B5826085BD6B
:1019A00085B5816085BD80916E00816080936E00F9
:1019B00010928100809181008260809381008091EB
:1019C000810081608093810080918000816080939C
:1019D00080008091B10084608093B1008091B0005C
:1019E00081608093B00080917A00846080937A0057
:1019F00080917A00826080937A0080917A008E7F55
:101A000080937A0080917A00806880937A001092A7
:101A1000C1001092F4041092F3041092F204109298
:101A2000F1041092F0041092EF048DEC90E090938A
:101A3000F6048093F5049091E504963108F047C0D0
:101A400025E530E03093F0042093EF042BEC30E0F8
:101A50003093F2042093F10420E930E03093F40451
:101A60002093F3042091680084E0983048F031E03E
:101A70009E3008F430E081E001C0880F3A95EAF723
:101A8000822B809368002DE630E0983050F02BE6F2
:101A900030E09E3030F02CE630E0963110F030E04F
:101AA00020E03093ED042093EC04292F30E09830AF
:101AB00008F082C081E001C0880F9A95EAF7809310
:101AC000EE048091F5049091F6040197F1F780916E
:101AD000F3049091F404892B49F1E091FF01F09116
:101AE000000224E0E93DF20709F1309739F0A389BB
:101AF000B4899C918589809589238C938091F70482
:101B00008E7F8093F7041092FE011092FD0189ED03
:101B100094E0909300028093FF01E091EC04F09137
:101B2000ED0480819091EE04892B808309ED14E00F
:101B300095E5D92E2AEAC22E31E1732E4CE2642EAD
:101B400055E0E52EF12C1093FB040093FA0410925B
:101B5000F9041092F80485E0A82EB12C10928302AB
:101B6000D0920302C09204027092050260920702B2
:101B7000F0920202E09201020E94E104BC0183E0C3
:101B800092E00E942B038EE20E945E0681111BC62A
:101B900031E0A31AB10811F70E94BB024B015C01AE
:101BA0000E94BB02681979098A099B09683E734043
:101BB0008105910540F6F4CF9E3040F4285031095C
:101BC00081E001C0880F2A95EAF779CF2E503109BC
:101BD000F7CF80913B0490913C040E948D0160E01E
:101BE00080E00E948A0261E081E00E948A0260E057
:101BF00081E00E943E024092600450926104609233
:101C00006204709263043092560420925504B9C461
:101C10008091600490916104A0916204B09163048A
:101C200073016201C81AD90AEA0AFB0AD701C60180
:101C3000853F9140A105B10508F4A3C440E659E0F1
:101C400060E070E080913B0490913C040E94B500FC
:101C50004092600450926104609262047092630446
:101C60001092640442E050E05093560440935504AF
:101C7000109258041092570484C4E0915704F091D4
:101C80005804EF30F10508F07CC4E75BF14F0C9489
:101C9000FB14580E780E980EB80EDE0E0C0F5E0F69
:101CA000900FC20FF40F3C1070109310A910BE10CB
:101CB00061E089E694E00E948D00882309F461C404
:101CC00080914404882339F082E090E09093580496
:101CD0008093570456C4409260045092610460920D
:101CE000620470926304309258042092570449C4ED
:101CF0008091600490916104A0916204B0916304AA
:101D0000481A590A6A0A7B0A97E049165104610485
:101D1000710408F436C4809164048F5F8093640476
:101D20008B3008F4A5CF109256041092550429C4A4
:101D300080913D0480938C04EE24E3940CE814E03D
:101D400020E041E060E489E694E00E94C9078093C6
:101D5000AF04682F89E694E00E948D00A3E0B0E014
:101D6000882309F40EC4B0935804A093570409C4FF
:101D700080913E04815080938C0480913F04815077
:101D800080938D0412E0E12E0CE814E021E042E0A3
:101D900060E489E694E00E94C9078093AF04682F4D
:101DA00089E694E00E948D00E4E0F0E0882309F4E5
:101DB000E8C3F0935804E0935704E3C380914004D0
:101DC00090914104A0914204B091430480938C040B
:101DD00090938D04A0938E04B0938F04B4E0EB2E07
:101DE0000CE814E022E044E060E489E694E00E941C
:101DF000C9078093AF04682F89E694E00E948D00A4
:101E0000882309F4BEC31092D8041092D70410920C
:101E1000D60485E090E05ACFE091D604F0E0EE0FD2
:101E2000FF1FEB5BFB4F0190F081E02DF093D80496
:101E3000E093D70404811581F02EA8015527608115
:101E400071818DE894E00E94F7160150023088F00D
:101E5000F4E0FF1540F5F8E0CF2ECF1438F5E0E1BF
:101E6000DE2EDF1430F570E2E72EEF1428F160E289
:101E7000F62EEE24E394EF0C0CE814E02091D60447
:101E80004F2D60E889E694E00E94C9078093AF0473
:101E9000682F89E694E00E948D00882309F471C3BD
:101EA00086E090E013CF54E0F52EE3CF48E0F42E27
:101EB000E0CF30E1F32EDDCFF12CDBCF81E080935A
:101EC0008C048091D7049091D804FC01369624E0CC
:101ED000ADE8B4E001900D922A95E1F7FC013A9645
:101EE00084E0A1E9B4E001900D928A95E1F729E040
:101EF000E22E0CE814E02091D60448E060E889E680
:101F000094E00E94C9078093AF04682F89E694E0AB
:101F10000E948D00882309F434C387E090E0D6CE78
:101F200082E080938C048091D7049091D804FC01C6
:101F3000769624E0ADE8B4E001900D922A95E1F7A1
:101F4000FC017A9684E0A1E9B4E001900D928A95B3
:101F5000E1F799E0E92E0CE814E02091D60448E07E
:101F600060E889E694E00E94C9078093AF04682F77
:101F700089E694E00E948D00882309F402C388E07A
:101F800090E0A4CE83E080938C048091D70490915C
:101F9000D804FC013E9624E0ADE8B4E001900D9237
:101FA0002A95E1F7FC01729684E0A1E9B4E0019082
:101FB0000D928A95E1F789E0E82E0CE814E0209173
:101FC000D60448E060E889E694E00E94C90780935F
:101FD000AF04682F89E694E00E948D00882309F4FD
:101FE000D0C289E090E072CEE091D704F091D8049D
:101FF00002A113A1F02E84E080938C04A801552740
:10200000668D778D8DE894E00E94F71601500230BE
:1020100070F024E02F1528F538E03F1528F540E151
:102020004F1528F550E25F1528F100E2F02EEE245E
:10203000E394EF0C0CE814E02091D6044F2D60E8F7
:1020400089E694E00E94C9078093AF04682F89E66F
:1020500094E00E948D00882309F493C28AE090E006
:1020600035CE14E0F12EE3CFB8E0FB2EE0CFA0E1B7
:10207000FA2EDDCFF12CDBCF80E880938C04E09149
:10208000D704F091D80484A180938D0485A1809316
:102090008E0486A180938F0487A180939004F5E03D
:1020A000EF2E0CE814E02091D60444E060E889E6C5
:1020B00094E00E94C9078093AF04682F89E694E0FA
:1020C0000E948D00882309F45CC240926004509203
:1020D000610460926204709263048BE090E0F6CD3C
:1020E0008091600490916104A0916204B0916304B6
:1020F000481A590A6A0A7B0A8FE14816510461049A
:10210000710408F43EC28091D60420913E0421500F
:10211000330B8217130624F48F5F8093D60479CE95
:10212000ACE0B0E020CE84E08093690461E089E611
:1021300094E00E948D00882309F423C24092600439
:10214000509261046092620470926304EDE0F0E0EA
:1021500030CE8091600490916104A0916204B091AE
:102160006304481A590A6A0A7B0AF9EE4F16F3E02B
:102170005F066104710408F0D6CD03C280913B0470
:1021800090913C040E948D01409140045091410483
:10219000609142047091430480913B0490913C040F
:1021A0000E94B5001092580410925704E3E0CE2E1E
:1021B000D12CD0925604C0925504E3C1809165049D
:1021C00090916604A0916704B0916804A301920104
:1021D000281B390B4A0B5B0BDA01C901813D974083
:1021E000A105B10508F09FCDCCC18330910509F45C
:1021F000DFC08430910509F0D0C18091B0048230F5
:1022000009F0EAC00E94E0026093650470936604DE
:1022100080936704909368041092830285E580930D
:1022200003028AEA8093040281E18093050280E23E
:102230008093070285E090E0909302028093010270
:102240000E94E104BC0183E092E00E942B03109203
:1022500005051092040589E20E945E06882309F4B0
:10226000F4C069E286E495E00E942D06609147057E
:10227000709148051616170614F061E070E056E0FC
:10228000660F771F5A95E1F7809186059091870533
:102290000E943A16909387058093860510E000E02F
:1022A000F12CE12C8091470590914805E816F9063C
:1022B0000CF0C9C280E00E945E06882309F4C5C004
:1022C00080918605909187056AE2800F911F0E9498
:1022D0002D06882309F4AEC05FEFE51AF50A005C0D
:1022E0001F4FE0CF80913B0490913C04DC01ED91C5
:1022F000FC910084F185E02D0995892B09F48CCFA0
:1023000080913B0490913C04DC01ED91FC910284AE
:10231000F385E02D0995182F8091D304811105C014
:1023200030925A042092590434C1E2E0F0E0F09374
:102330005A04E09359042DC1E12FF0E063E0F595D4
:10234000E7956A95E1F7E77080E4E63020F4F0E085
:10235000EA5FFE4F80818E5F8093D3048432D8F48D
:102360001092D404F092D5048091D404E82FF0E0C8
:10237000E055FB4F10838F5F8093D4049091D3047A
:10238000891780F01092D30423E030E030935A0490
:1023900020935904FEC01092D30410925A04109254
:1023A0005904F7C08091D50481278093D504F5CFD7
:1023B0008091D504811307C044E050E050935A0443
:1023C00040935904E6C0098361E0CE0101960E9462
:1023D0008D008823C9F3E1CF209155043091560434
:1023E00022303105F9F4409157045091580441309E
:1023F000510531F4811104C03093580420935704DF
:1024000020915704309158042D30310509F0FACE4F
:10241000843009F0F7CE8EE090E0909358048093DA
:102420005704F0CE833409F0F7CE8091B104809345
:102430005B04F2CE80918605909187056BE2800F58
:10244000911F0E942D06811147CF10928802109291
:10245000890210928A0210928B0210928C021092C2
:102460008D0210928E0210928F02109290021092A2
:102470009102109292021092930210929402109282
:102480009502109296021092970210929802109262
:10249000990210929A0210929B0289E090E0A0E0CB
:1024A000B0E080939C0290939D02A0939E02B09313
:1024B0009F020E94E0020091840210918502209107
:1024C0008602309187026B017C01C01AD10AE20AB0
:1024D000F30A970186010230110521053105C8F084
:1024E00060938402709385028093860290938702A2
:1024F00020915504309156042330310551F4209138
:102500005B04213009F443C108F42BC1223009F4E3
:102510004DC10E94E0022B013C0183E2A9E6B4E038
:10252000E82F1D92EA95E9F7ACE8B4E01D928A9590
:10253000E9F71092AF0480915C0490915D04A09142
:102540005E04B0915F04481659066A067B06C9F01E
:1025500040925C0450925D0460925E0470925F044D
:1025600080915504909156048130910509F450CB27
:1025700008F42FCB8230910509F47FCB039709F43F
:102580001DCE10925A041092590410E002E0FF246C
:10259000FA948091590490915A048230910509F47B
:1025A000E3CE08F022CE009709F49CCE813091054D
:1025B000A1F7812F8D7F19F0143009F0BDCE109353
:1025C000B00474E0C72ED12CD0925A04C0925904A2
:1025D000E0CF109288021092890210928A02109223
:1025E0008B0210928C0210928D0210928E02109229
:1025F0008F02109290021092910210929202109209
:1026000093021092940210929502109296021092E8
:102610009702109298021092990210929A021092C8
:102620009B0248E0C42ED12CE12CF12CC0929C02DC
:10263000D0929D02E0929E02F0929F023ACF1091BA
:102640008805C0908905D0908A05A0918B05B0912E
:102650008C0560918D0570918E0540918F0550918C
:10266000900520919105309192052FC01B3279F190
:102670002091040530910505FC01281739070CF459
:10268000F901281739070CF067C09F012F5F3F4FF2
:102690003093050520930405E817F90784F636E022
:1026A000EE0FFF1F3A95E1F72091860530918705DF
:1026B000E20FF31F1081C180D280A381B4816581B4
:1026C000768147815085218532851A3279F60D2C25
:1026D000000CEE08FF08C0928802D0928902E092B6
:1026E0008A02F0928B026D01BB0FEE08FF08C092C8
:1026F0008C02D0928D02E0928E02F0928F026B01DA
:10270000770FEE08FF08C0929002D0929102E092FB
:102710009202F0929302052E000C660B770B409309
:102720009402509395026093960270939702032E41
:10273000000C440B550B2093980230939902409360
:102740009A0250939B0280929C0290929D02A092CA
:102750009E02B0929F028CCFF0930505E093040592
:10276000A8CE20E2E22E08E812E020E040E260EC91
:1027700089E694E00E94C9078093AF046091AF049A
:1027800089E694E00E948D008823C1F3C2CE28EE32
:1027900033E040E050E00E94D914CA01B901625E02
:1027A0007F4F8F4F9F4F0E940008B3CE28EE33E03B
:1027B00040E050E00E94D914CA01B901645C7F4F27
:1027C0008F4F9F4FF0CF6AE571E0CE0101960E94D6
:1027D00096086FE471E0CE0107960E94960848E0E3
:1027E000BE016F5F7F4FCE0107960E94A708CE0102
:1027F00007960E942E08CE0101960E942E086BE5D6
:1028000071E0CE0101960E9496086FE571E0CE015D
:1028100007960E94960841E0BE016F5F7F4FCE0190
:1028200007960E94A708CE0107960E942E08CE01A7
:1028300001960E942E0822242394312C812C912C65
:102840005401839466CE2091490530914A05232B8B
:1028500009F4BFCE2091040530910505582F492F6A
:102860002817390714F4522F432F5093040540932F
:102870000505281739070CF4FBCE10928802109238
:10288000890210928A0210928B0210928C0210928E
:102890008D0210928E0210928F021092900210926E
:1028A000910210929202109293021092940210924E
:1028B000950210929602109297021092980210922E
:1028C000990210929A0210929B0227E030E040E0B9
:1028D00050E020939C0230939D0240939E025093BF
:1028E0009F02E7CD81E491E09093DA048093D904CC
:1028F0008091FF0190910002895D944071F4E09114
:10290000EC04F091ED0490818091EE048095892390
:102910008083109200021092FF0108952F923F923F
:102920004F925F926F927F928F929F92AF92BF92DF
:10293000CF92DF92EF92FF920F931F93CF93DF938B
:10294000CDB7DEB7CA1BDB0B0FB6F894DEBF0FBEE8
:10295000CDBF09942A88398848885F846E847D8435
:102960008C849B84AA84B984C884DF80EE80FD8037
:102970000C811B81AA81B981CE0FD11D0FB6F894AD
:10298000DEBF0FBECDBFED01089597FB072E16F4F5
:10299000009407D077FD09D00E94011507FC05D0EF
:1029A0003EF4909581959F4F0895709561957F4F66
:1029B0000895A1E21A2EAA1BBB1BFD010DC0AA1F80
:1029C000BB1FEE1FFF1FA217B307E407F50720F098
:1029D000A21BB30BE40BF50B661F771F881F991F13
:1029E0001A9469F760957095809590959B01AC015C
:1029F000BD01CF010895EE0FFF1F0590F491E02D6A
:102A00000994AA1BBB1B51E107C0AA1FBB1FA61735
:102A1000B70710F0A61BB70B881F991F5A95A9F787
:102A200080959095BC01CD0108950F931F93CF938E
:102A3000DF938230910510F482E090E0E091CA05C6
:102A4000F091CB0530E020E0B0E0A0E0309799F4C1
:102A50002115310509F44AC0281B390B24303105F2
:102A6000D8F58A819B816115710589F1FB019383FA
:102A70008283FE0111C04081518102811381481778
:102A80005907E0F04817590799F4109761F012962A
:102A90000C93129713961C933296CF01DF91CF912E
:102AA0001F910F9108950093CA051093CB05F4CFA1
:102AB0002115310551F04217530738F0A901DB0108
:102AC0009A01BD01DF01F801C1CFEF01F9CF909369
:102AD000CB058093CA05CDCFFE01E20FF31F819392
:102AE00091932250310939832883D7CF2091C8058B
:102AF0003091C905232B41F420910201309103014B
:102B00003093C9052093C80520910001309101013F
:102B10002115310541F42DB73EB740910401509184
:102B20000501241B350BE091C805F091C905E2179A
:102B3000F307A0F42E1B3F0B2817390778F0AC01E0
:102B40004E5F5F4F2417350748F04E0F5F1F5093BD
:102B5000C9054093C805819391939FCFF0E0E0E0D1
:102B60009CCFCF93DF930097E9F0FC01329713825B
:102B70001282A091CA05B091CB05ED0130E020E0B2
:102B80001097A1F420813181820F931F2091C805F5
:102B90003091C9052817390709F061C0F093C905BC
:102BA000E093C805DF91CF910895EA01CE17DF07C2
:102BB000E8F54A815B819E0141155105B1F7E901B4
:102BC000FB83EA8349915991C40FD51FEC17FD0788
:102BD00061F4808191810296840F951FE9019983A8
:102BE0008883828193819B838A83F0E0E0E0129660
:102BF0008D919C9113970097B9F52D913C91119768
:102C0000CD010296820F931F2091C8053091C9050E
:102C10002817390739F6309751F51092CB051092E5
:102C2000CA05B093C905A093C805BCCFD383C2839E
:102C300040815181840F951FC817D90761F44E5FF9
:102C40005F4F88819981480F591F518340838A8142
:102C50009B81938382832115310509F0B0CFF093D6
:102C6000CB05E093CA059ECFFD01DC01C0CF1382E6
:102C70001282D7CFB0E0A0E0E0E4F6E10C9490142B
:102C80008C01009751F4CB010E9415158C01C801ED
:102C9000CDB7DEB7E0E10C94AC14FC01E60FF71FF2
:102CA0009C0122503109E217F30708F49DC0D901B5
:102CB000CD91DC911197C617D70798F0C530D10593
:102CC00030F3CE0104978617970708F3C61BD70B7E
:102CD0002297C193D1936D937C93CF010E94B1153C
:102CE000D6CF5B01AC1ABD0A4C018C0E9D1EA09183
:102CF000CA05B091CB05512C412CF12CE12C109739
:102D000031F58091C8059091C9058815990509F09C
:102D10005CC04616570608F058C08091000190919B
:102D20000101009741F48DB79EB740910401509185
:102D30000501841B950BE817F90708F055C0F093BF
:102D4000C905E093C805F90171836083A0CF8D9117
:102D50009C91119712966C90129713967C901397F2
:102D6000A815B90559F56C0142E0C40ED11CCA146E
:102D7000DB0420F1AC014A195B09DA0112961597C0
:102D800080F06282738251834083D9016D937C937A
:102D9000E114F10471F0D7011396FC93EE931297AE
:102DA00076CF22968C0F9D1FF90191838083F301CA
:102DB000EFCFF093CB05E093CA0569CF48165906CB
:102DC00008F42C017D01D3019ACFCB010E94151587
:102DD0007C01009749F0AE01B8010E94F716C801C6
:102DE0000E94B115870153CF10E000E050CFFB01E6
:102DF000DC0102C001900D9241505040D8F7089577
:102E0000FB01DC0101900D920020E1F7089510E034
:102E1000C2E6D0E004C0FE010E94FB142196C33636
:102E2000D107C9F7F894FFCF0000CC05800001025C
:102E30000408102001000200000003000000000050
:102E4000000004000000000000000000000000007E
:102E500000000500000000D1010F013C011E026DC1
:102E6000014B015F010000000095050F012A065B80
:102E700004F10509067D05446174612D455633480A
:102E8000534B007365630054696D652D4556334897
:042E9000534B0000A0
:107800000C94343C0C94513C0C94513C0C94513CE1
:107810000C94513C0C94513C0C94513C0C94513CB4
:107820000C94513C0C94513C0C94513C0C94513CA4
:107830000C94513C0C94513C0C94513C0C94513C94
:107840000C94513C0C94513C0C94513C0C94513C84
:107850000C94513C0C94513C0C94513C0C94513C74
:107860000C94513C0C94513C11241FBECFEFD8E036
:10787000DEBFCDBF11E0A0E0B1E0EAE8FFE702C063
:1078800005900D92A230B107D9F712E0A2E0B1E065
:1078900001C01D92AD30B107E1F70E942D3D0C945F
:1078A000C33F0C94003C982F95959595959595958B
:1078B000905D8F708A307CF0282F295A8091C0000B
:1078C00085FFFCCF9093C6008091C00085FFFCCF60
:1078D0002093C6000895282F205DF0CF982F809127
:1078E000C00085FFFCCF9093C6000895EF92FF92F1
:1078F0000F931F93EE24FF2487018091C00087FD22
:1079000017C00894E11CF11C011D111D81E2E8164D
:1079100081EAF80687E0080780E0180770F3E09135
:107920000401F091050109958091C00087FFE9CF1E
:107930008091C6001F910F91FF90EF9008950E94D3
:10794000763C982F8091C00085FFFCCF9093C600B5
:1079500091362CF490330CF09053892F089597555D
:10796000892F08951F930E949F3C182F0E949F3CCF
:107970001295107F810F1F9108951F93182F882350
:1079800021F00E94763C1150E1F71F9108951F935A
:10799000182F0E94763C803249F0809103018F5F5E
:1079A000809303018530C1F01F9108958091C0003C
:1079B00085FFFCCF84E18093C6008091C00085FFE5
:1079C000FCCF1093C6008091C00085FFFCCF80E102
:1079D0008093C6001F910895E0910401F091050184
:1079E00009951F9108950E94763C803241F0809164
:1079F00003018F5F80930301853081F008958091AA
:107A0000C00085FFFCCF84E18093C6008091C00058
:107A100085FFFCCF80E18093C6000895E0910401CA
:107A2000F09105010995089548EC50E08823A1F0F4
:107A30002D9A28EE33E0FA013197F1F721503040CA
:107A4000D1F72D9828EE33E0FA013197F1F7215064
:107A50003040D1F7815061F708953F924F925F9285
:107A60006F927F928F929F92AF92BF92CF92DF924E
:107A7000EF92FF920F931F93CF93DF93000082E06A
:107A80008093C00080E18093C4001092C50088E11B
:107A90008093C10086E08093C2005098589A259A3E
:107AA00081E00E94143D24E1F22E9EE1E92E85E959
:107AB000D82E0FE0C02E10E1B12EAA24A394B1E479
:107AC0009B2EA6E58A2EF2E57F2EE0E26E2E79E46B
:107AD000572E63E5462E50E5352E0E94763C8033C6
:107AE000B1F18133B9F1803409F46FC0813409F404
:107AF00076C0823409F485C0853409F488C08035A5
:107B000031F1823521F1813511F1853509F485C0D6
:107B1000863509F48DC0843609F496C0843709F49B
:107B200003C1853709F472C1863709F466C08091B4
:107B300003018F5F80930301853079F6E0910401A2
:107B4000F091050109950E94763C803351F60E9420
:107B5000F33CC3CF0E94763C803249F78091C0004D
:107B600085FFFCCFF092C6008091C00085FFFCCF5E
:107B70009092C6008091C00085FFFCCF8092C60025
:107B80008091C00085FFFCCF7092C6008091C0003C
:107B900085FFFCCF6092C6008091C00085FFFCCFBE
:107BA0005092C6008091C00085FFFCCF4092C60075
:107BB0008091C00085FFFCCF3092C6008091C0004C
:107BC00085FFFCCFB092C60088CF0E94763C8638F5
:107BD00008F4BDCF0E94763C0E94F33C7ECF0E9409
:107BE000763C803809F49CC0813809F40BC1823896
:107BF00009F430C1883909F48FC080E00E94C73C85
:107C00006CCF84E10E94BD3C0E94F33C66CF85E0CE
:107C10000E94BD3C0E94F33C60CF0E94763C809362
:107C200006010E94763C809307010E94F33C55CFE9
:107C30000E94763C803309F411C183E00E94BD3C70
:107C400080E00E94C73C49CF0E94763C80930902A5
:107C50000E94763C8093080280910C028E7F809374
:107C60000C020E94763C853409F409C18091080217
:107C700090910902892B89F000E010E00E94763C87
:107C8000F801E85FFE4F80830F5F1F4F809108026D
:107C9000909109020817190788F30E94763C8032F8
:107CA00009F045CF80910C0280FFF5C0609106017C
:107CB00070910701660F771F7093070160930601AB
:107CC000A0910802B09109021097C9F0E8E0F1E034
:107CD0009B01AD014E0F5F1FF999FECF32BD21BD53
:107CE000819180BDFA9AF99A2F5F3F4FE417F5070B
:107CF00099F76A0F7B1F70930701609306018091CB
:107D0000C00085FFFCCFF092C6008091C00085FFC7
:107D1000FCCFB092C600E1CE83E00E94C73CDDCE2E
:107D200082E00E94C73CD9CE0E94763C8093090233
:107D30000E94763C80930802809106019091070191
:107D4000880F991F90930701809306010E94763C4B
:107D5000853409F49AC080910C028E7F80930C02C6
:107D60000E94763C803209F0B8CE8091C00085FF39
:107D7000FCCFF092C600A0910802B09109021097C2
:107D8000C1F180910C02082F0170182F1695117007
:107D9000E0910601F0910701AF014F5F5F4FBA011B
:107DA00020E030E00023B1F4112339F49491809164
:107DB000C00085FFFCCF9093C6002F5F3F4FCB01E3
:107DC0000196FA012A173B0780F4BC014F5F5F4F11
:107DD000002351F3F999FECFF2BDE1BDF89A90B5B9
:107DE0008091C00085FFFCCFE6CF709307016093C0
:107DF00006018091C00085FDE5CE8091C00085FF21
:107E0000F8CFE0CE81E00E94C73C67CE0E94763C6E
:107E1000803209F08CCE8091C00085FFFCCFF092BB
:107E2000C6008091C00085FFFCCFE092C600809123
:107E3000C00085FFFCCFD092C6008091C00085FFB6
:107E4000FCCFC092C6008091C00085FFFCCFB092ED
:107E5000C60043CE80E10E94C73C3FCE0E94763CE4
:107E60000E94763C182F0E94763C112309F483C0AF
:107E7000113009F484C08FE00E94C73C2ECE80915F
:107E80000C02816080930C02F1CE80910C02816023
:107E900080930C0265CF809107018823880F880B9F
:107EA0008A2180930B028091060190910701880F2F
:107EB000991F90930701809306018091080280FF2B
:107EC00009C08091080290910902019690930902DD
:107ED00080930802F894F999FECF1127E0910601EA
:107EE000F0910701C8E0D1E0809108029091090269
:107EF000103091F40091570001700130D9F303E084
:107F000000935700E8950091570001700130D9F3B4
:107F100001E100935700E8950990199000915700EE
:107F200001700130D9F301E000935700E8951395F3
:107F3000103498F011270091570001700130D9F3E7
:107F400005E000935700E89500915700017001305B
:107F5000D9F301E100935700E8953296029709F0B2
:107F6000C7CF103011F00296E5CF11248091C000E8
:107F700085FFC5CEC8CE8EE10E94C73CAECD85E957
:0C7F80000E94C73CAACDF894FFCF8000FF
:00000001FF
